:100000000A128A11F02FFF1B0D2883137F18831704
:100010000008840A0319FF0A080000308A00040857
:10002000840A82070034243447345034473453342C
:1000300041342C3441342C3433342C343034313486
:100040002C34303432342C34303433342C34303497
:1000500034342C34303435342C34303436342C347D
:10006000303437342C34303438342C343034393460
:100070002C34313430342C34313431342C34313468
:1000800032342C3431342E3430342C3431342E3458
:1000900030342C3431342E3430342A343334303448
:1000A0000A342434473450344734473441342C34F0
:1000B0003134363434343534313434342E34353408
:1000C000333435342C3431343034303436342E3407
:1000D0003434313432342C344E342C3430343734DC
:1000E0003634323431342E343134313434342C34E7
:1000F00045342C3431342C34313432342C343134D2
:100100002E3430342C3430342E3430342C344D34BE
:100110002C3430342E3430342C344D342C342C34B4
:100120002A34363438340A34243447345034523480
:100130004D3443342C343134363434343534313462
:1001400034342E343534333435342C3441342C3477
:1001500031343034303436342E3434343134323473
:100160002C344E342C343034373436343234313449
:100170002E343134313434342C3445342C342C3452
:100180002C343134383431343234313439342C3441
:100190003034303430342E3430342C3457342A3424
:1001A0003734453400346C346F346E34673469341A
:1001B00074347534643465343A3400346C346134E6
:1001C0007434693474347534643465343A340034C6
:0601D0000A340D34003476
:100C7A0024344734503447344734413400348312DF
:100C8A0003138C1E442E1A08F0007008F100710834
:100C9A000800F000700883120313990083160313E7
:100CAA0098180800532E24308316031398009030A6
:100CBA008312031398006730831603139900080000
:100CCA007E088A007F08820065260A128A1180003F
:100CDA00840A04087D0603190034FF0A0319FE0A70
:100CEA00692E720883120313FF00710884000A1226
:100CFA008A1103200A128A11003A0319080072089D
:100D0A0083120313FF00710884000A128A11032058
:100D1A000A128A110A128A114E260A128A110130FF
:100D2A00F1070318F20A0030F2073430F400F13008
:100D3A00F300F30B9E2EF40B9E2EA32E762E831613
:100D4A0003130713871783120313871307138316D3
:100D5A00031306140A128A1158260A128A118312D8
:100D6A000313061CCE2E0130F1008030F2000A1265
:100D7A008A1176260A128A116630FB007630FA004A
:100D8A00C130F900F90BC72EFA0BC72EFB0BC72E81
:100D9A00B82E0618E22E0A128A11E5260A128A11BC
:100DAA002930FB009630FA007F30F900F90BDB2E70
:100DBA00FA0BDB2EFB0BDB2ED02E0A128A1100282F
:100DCA0040308400A030F5000408F6000730F70030
:100DDA007508840083130008F800F50A7608840071
:100DEA0078088000F60AF70BED2E83120313E80148
:100DFA00DC01DD01E201E301E401E501E601E701CD
:100E0A00DE01DF01E001E1015D08803AFF00803088
:100E1A007F02031D122FBF305C020318C42F0A126F
:100E2A008A1144260A128A11F500750883120313DF
:100E3A00E9000630620663040319272F5E035F0484
:100E4A00031DA52F0130DE000030DF006908F50020
:100E5A006808203E84007508831380006108803A80
:100E6A00FF0080307F02031D3C2F0C306002031C00
:100E7A00652F831203136708803AFF0080307F02D0
:100E8A00031D492F093066020318652F83120313C5
:100E9A006908F5006608523E8400750883138000CD
:100EAA000130E6070318E70A0030E7072C30690625
:100EBA00031D652FFF30E6070318E70AFF30E7072F
:100ECA00831203136108803AFF0080307F02031DFA
:100EDA00702F17306002031C992F831203136508C1
:100EEA00803AFF0080307F02031D7D2F0A306402A2
:100EFA000318992F831203136908F5006408473E03
:100F0A0084007508831380000130E4070318E50A9A
:100F1A000030E5072C306906031D992FFF30E407DE
:100F2A000318E50AFF30E5070130F500750883125A
:100F3A000313E8070130E0070318E10A0030E1076C
:100F4A0025306802031CAC2FDE01DF01E8016208CC
:100F5A00403E8400831300086906031DBB2F01303D
:100F6A00E2070318E30A0030E307BD2FE201E301B9
:100F7A000130DC070318DD0A0030DD07092FCC3009
:100F8A00F1008030F2000A128A1176260A128A11BA
:100F9A005230F1000030F2000A128A1176260A1243
:100FAA008A11C130F1008030F2000A128A117626C5
:100FBA000A128A114730F1000030F2000A128A112F
:100FCA0076260A128A11D630F1008030F2000A120F
:100FDA008A11762608008313A730FD000630FE002A
:100FEA003D30FF00A03084000A128A11692683016D
:060FFA000A128A11A42E68
:00000001FF
